:040000006F00B0726B
:1000040000000000000000002C0E00002E0E000076
:1000140000000000280F00000000000000000000A5
:10002400280F0000280F000000000000000000005E
:10003400280F000000000000280F0000000000004E
:10004400280F0000280F0000280F0000280F0000D0
:10005400280F0000280F0000280F0000AE0C00003D
:10006400280F0000280F0000280F0000280F0000B0
:10007400280F0000280F0000280F0000280F0000A0
:10008400280F0000280F0000280F0000280F000090
:10009400280F0000280F0000280F0000280F000080
:1000A400280F0000280F0000280F0000280F000070
:1000B4006E080000280F0000280F0000280F000021
:1000C400280F0000280F0000280F0000280F000050
:1000D400280F0000280F0000280F0000280F000040
:1000E400280F0000280F0000280F0000280F000030
:0C00F400280F0000280F0000280F00005B
:10010000397101436EC619A0397141536AC866CA74
:1001100062CC5ECE19A0397101535AD056D252D456
:100120004ED64AD826DA22DC06DE330161408282CE
:1001300041114AC026C222C406C68282B24D410184
:10014000024D924C224CB24B4101024B924A224A40
:10015000B2494101024992442244B24041018280A5
:10016000371702401C4F93E747001CCF8280371798
:1001700002401C4F93E787001CCF82803717024054
:100180001C4F93E707021CCF82809377050F4147EE
:100190006395E70E137885001375F50F9376750058
:1001A0008A06138726008D473396E70093F83500BB
:1001B000B397D70013F385001346F6FF3397E80093
:1001C00093C7F7FF63180304B705002003A50500D4
:1001D0003315D50063110802B715014083A60580C9
:1001E000F58FC98F23A0F58083A705807D8E518F61
:1001F00023A0E5808280B716014083A54680ED8F5D
:10020000C98F23A2F68083A746807D8E518F23A2BB
:10021000E6808280B71601406314080403A80680B4
:10022000B377F80023A0F68083A706807D8E518FD8
:1002300023A0E68089476395F82E3717014083266F
:10024000C7803D898547B397A700898593C7F7FF86
:100250008589F58F3395A5005D8D2326A780828043
:1002600003A84680B377F80023A2F68083A74680D0
:100270007D8E518F23A2E68075BF13070002639520
:10028000E70E137885001375F50F937675008A06CF
:10029000138726008D473396E70093F83500B39710
:1002A000D70013F385001346F6FF3397E80093C792
:1002B000F7FF63180304B705002003A505003315F5
:1002C000D50063110802B715014083A605C0F58F5C
:1002D000C98F23A0F5C083A705C07D8E518F23A0B1
:1002E000E5C08280B716014083A546C0ED8FC98F57
:1002F00023A2F6C083A746C07D8E518F23A2E6C0FD
:100300008280B71601406314080403A806C0B377BF
:10031000F80023A0F6C083A706C07D8E518F23A0CE
:10032000E6C08947639EF81E371701408326C7C081
:100330003D898547B397A700898593C7F7FF8589CE
:10034000F58F3395A5005D8D2326A7C0828003A875
:1003500046C0B377F80023A2F6C083A746C07D8EBF
:10036000518F23A2E6C075BF130700036396E71AF7
:10037000137885001375F50F137675000A061307B9
:1003800026008D47B396E70093F83500B397C70072
:1003900013F3850093C6F6FF3397E80093C7F7FF82
:1003A000631E0302B705002003A50500B715014031
:1003B0003315C500631B08009041F18FC98F9CC1A4
:1003C0009C41FD8E558F98C18280D041F18FC98F9D
:1003D000DCC1DC41FD8E558FD8C1828037160140CB
:1003E000631F080203280600B377F8001CC21C42F2
:1003F000FD8E558F18C289476394F8123717014054
:1004000054473D898547B397A700898593C7F7FF70
:100410008589F58F3395A5005D8D48C782800328B7
:100420004600B377F8005CC25C42FD8E558F58C21F
:10043000D9B7137885001375F50F937675008A0682
:10044000138726008D473396E70093F83500B3975E
:10045000D70013F385001346F6FF3397E80093C7E0
:10046000F7FF63180304B705002003A50500331543
:10047000D50063110802B715014083A60540F58F2A
:10048000C98F23A0F54083A705407D8E518F23A0FF
:10049000E5408280B716014083A54640ED8FC98FA5
:1004A00023A2F64083A746407D8E518F23A2E640CB
:1004B0008280B71601406314080403A80640B3778E
:1004C000F80023A0F64083A706407D8E518F23A01D
:1004D000E64089476396F804371701408326C740F2
:1004E0003D898547B397A700898593C7F7FF85891D
:1004F000F58F3395A5005D8D2326A740828003A844
:100500004640B377F80023A2F64083A746407D8E8D
:10051000518F23A2E64075BF13070004E38BE7F079
:1005200082801377050FC147631FF700B71701409B
:1005300003A787803D898547B397A700F98FB33715
:10054000F0003E858280930700026317F700B7171B
:10055000014003A787C0F9BF930700036316F700A4
:10056000B71701409847F9B7930600049307F00FB7
:10057000E319D7FCB717014003A7874065BF9377FE
:10058000050F41476393E70285473D893395A700EF
:10059000B717014093870780D84789E51345F5FFD2
:1005A000798D11A0598DC8C7828013070002639B03
:1005B000E70085473D893395A700B717014093872A
:1005C00007C0D9BF130700036392E70285473D893F
:1005D0003395A700B7170140C1B785473D893395CB
:1005E000A700B7170140938707407DB713070004A2
:1005F000E385E7FE8280B7170240D843B7062000A4
:10060000558FD8C3D843B7061000558FD8C3D843E9
:10061000B7060800558FD8C3D843B7060400558FD6
:10062000D8C3D4437D771306F77FF18ED4C3D44368
:100630007D17758FD8C3D8438966558FD8C3D843E3
:10064000F176FD16758FD8C3D843A166558FD8C3F0
:10065000B746024003A706801367070123A0E68080
:100660009843B7060001558F98C3984393166700C7
:10067000E3DD06FED84313672700D8C38280EFF27C
:100680003FABF93CED34DD3C371702401C4FA1660F
:10069000B94593E717001CCFB7070140D84345453C
:1006A000558FD8C3D843B70600FFFD16758FD8C342
:1006B000D843B70600FEFD16758FD8C3D843B706DA
:1006C0000004558FD8C3B70700200D4723A0E700CB
:1006D0006D3CB9455545553C814549457D3481457D
:1006E0004D456534814551454D34A1455945713CD1
:1006F00089455D45593C85457D45413C854513050A
:1007000050026134854575454934854513053002ED
:10071000AD3C85456945953C85456545BD34854578
:10072000130540029D348545614585348545130593
:100730006002A13C854513057002813C8545130587
:100740000004A134854513051004813481457945A1
:100750002D3C8145130500020D3CA94513051002EF
:100760002D34CDBA371702401C4FFD769386F67FA5
:1007700093E707201CCFB727014003A78740758F59
:1007800023A4E7408280EFF2BF9A8545130500025B
:10079000FD33B70701409847938607401367070169
:1007A00098C703A707401367270023A0E74083A744
:1007B000C740015793E72700DCC6B7E700E0A38BEB
:1007C000E7403707800023A0E71069B237170240DF
:1007D0005C4F93E727005CCF370700408356074004
:1007E0009307074093E606082310D7408356074037
:1007F00093E616002310D7401307F0089AB7962FF8
:100800007D777D17758F9AAF9A2F8966558F9AAF2E
:100810009A2F9166558F9AAF962F05671307078019
:10082000558F420741839AAF8280371702405C4F51
:10083000856693E717005CCFB70700409A231367DC
:1008400007089AA31307F0089AB71307803EDAB790
:10085000DA2713671700DAA737E700E02306074215
:100860002322D7109A23136717009AA38280370791
:1008700000401E2B411122C6C207C183F99BC2074B
:1008800026C4C1831EAB938701829843050798C392
:100890009387C18098431384C180050798C3984308
:1008A000914763D4E7002320040003A7C181854753
:1008B0008545631AF73213056002D131854513056A
:1008C00070027539854513050004553985451305B2
:1008D00010047531814579455D31184091476318A1
:1008E000F70413870181184393840181418B1DCB49
:1008F00081457D45693181451305500249319C4050
:10090000814593F7070291E3854575458D391C4074
:1009100011476365F72C05678A07130707FBBA972A
:100920009C43828785457D4599398545F1B71840B7
:1009300093874181BA97982393066006931787019E
:10094000E18763E1E61C05678A07130747FCBA974E
:100950009C43828781457D451D31814513055002A9
:1009600039398145754521398145130530020139F1
:100970008145F9A885457D4519318145130550020A
:10098000FD3E81457545E53E854513053002C53E72
:1009900085456945ED3685457DA881457D45C5364A
:1009A000814513055002E13E85457545C93E8145A7
:1009B00013053002E93681456945D136854599A050
:1009C00081457D456D3E8145130550024D3E814573
:1009D0007545753681451305300255368545E9BFA5
:1009E00085457D45693E814513055002493E814557
:1009F0007545713685451305300251368545694583
:100A0000BD3E81456545A53E814513054002FDBDBE
:100A100081457D45AD368545130550028D368145AE
:100A20007545B13E8145C1BF81457D45893E8545BE
:100A30001DA881457D45A1368145130550028136AB
:100A4000814575452D3E8545130530020D3E854592
:100A500069453536814565451D3685457DB78145F6
:100A60007D45313E814513055002113E8145754556
:100A700039368145130530021936814549B781451C
:100A80007D45F53C814549BF81457D45CD3C81454E
:100A900013055002ED3481457545D5348545D9BFE0
:100AA000854561B781457D45D93C85451305500293
:100AB000F934854545BD85457D45D13481451305CE
:100AC0005002753C8145D5B581457D454D3C8545F8
:100AD000130550026D34854559BF81457D45453428
:100AE000854513055002613C85457DB785457D45AB
:100AF000793485451305500259348545754541348F
:100B00008545D1BD85457D459D3C854513055002F4
:100B1000BD34854585BD83A701818145858B91E3E2
:100B200085456145A93C854513056002893C85459D
:100B300013057002A93485451305000489348145E5
:100B4000130510042D3C814541A883A701818145EF
:100B5000898B91E3854561451D3485451305600208
:100B6000393C854513057002193C81451305000485
:100B700039348545F1B783A701818145918B91E394
:100B800085456145ED3A854513056002CD3A8145BD
:100B900013057002ED328545D1BF83A701818145E0
:100BA000A18B91E385456145D93A814513056002E2
:100BB000F9328545F1BF854513056002C932854587
:100BC000130570026D3A8545130500044D3A8545BD
:100BD000130510046D328545794555323244A244DF
:100BE0004101730020307D45593A85451305500277
:100BF00079328545754561328545130530024132AC
:100C000085456945AD3A85456545953A8545130560
:100C10004002B532854561459D32854541BFB7F7F4
:100C200000E098437D569306F00F1367870098C342
:100C300098431367470098C390CBD4CB984313676E
:100C4000170098C38280B7F700E0814694C7014738
:100C5000D8C7B7370200938707283306F50241113A
:100C600037F800E0B316F50232C436C60326880012
:100C70008326C8002247B247E3EAF6FE6394D70012
:100C8000E366E6FE41018280B7F700E0814694C743
:100C90000147D8C7B7F500E09356F5419845DC45C4
:100CA000E3EED7FE6394F600E36AA7FE82800111AB
:100CB0004ACAB7E700E022CE26CC4EC852C656C478
:100CC0005AC25EC03707800023A0E71883A781803F
:100CD0001169130589A9D9EF453F81440144B7FA49
:100CE00000E0130979A9854B214B8147014823A4D2
:100CF000FA0023A60A018149014A03A78A0083A7B3
:100D0000CA0099E3637FE90463F74901B3979B0045
:100D10005D8C1374F40F8504E39964FD116513056C
:100D200085A99D371165130585A923A28180A93F57
:100D3000B707014003A747417244E2441367270005
:100D400023AAE740B7E700E03707800023A0E710B9
:100D50005249C249324AA24A124B824B0561730082
:100D6000203013051002EFF0CFFB19E1850971B7B0
:100D7000050A61B7113FA1440144B7FA00E0130925
:100D800079A9854B414B8147014823A4FA0023A64A
:100D90000A018149014A03A78A0083A7CA0099E38F
:100DA0006374E90663F74901B3979B005D8C4204C5
:100DB00041808504E39964FD9164138584A9E93534
:100DC000138584A9D1350149B7FA00E0938474A949
:100DD000854B214B8147014823A4FA0023A60A0131
:100DE0008149014A03A78A0083A7CA0099E363F6F1
:100DF000E40263F74901B3972B015D8C4204418003
:100E00000509E31969FD39BF13051002EFF06FF111
:100E100019E1850949B7050ABDBF13051002EFF0B6
:100E20004FF019E185097DBF050A6DBF01A0B70725
:100E3000EFBE37E700E0938707083CC701A03747BC
:100E400032BB938741821307D70698C7373731ECF7
:100E50001307B75ED8C78280EFF28FADEFF0AFF91E
:100E60007D3BEFF0DF81EFF05F9CEFF0BF8FEFF0A5
:100E70009F91EFF0BF9513054006F133C937FDBFD1
:100E8000B71702409843B706FFF01367170098C3DF
:100E9000D843758FD8C39843B706F7FEFD16758FF4
:100EA00098C39843B706FCFFFD16758F98C3D843C7
:100EB000B70601FFFD16758FD8C337079F0098C787
:100EC000B746024003A706801367070123A0E68008
:100ED000D843B706C1FFFD16D8C3D843D8C3D843FB
:100EE00013670740D8C3D843758FD8C3D843B70614
:100EF0003C00558FD8C39843B7060001558F98C35F
:100F0000984393166700E3DD06FED843B716024008
:100F1000719BD8C3D84313672700D8C32147DC424D
:100F2000B18BE39EE7FE828001A0970100209381B0
:100F3000618D174100201301E10C17050000130516
:100F4000652297F5FF1F9385E50B1386818063FA71
:100F5000C5008322050023A0550011059105E3EA91
:100F6000C5FE13858180938541836377B500232077
:100F700005001105E36DB5FEFD42739002BC8D4284
:100F800073904280930280087390023097F2FFFFC3
:100F90009382820793E2320073905230EFF05FEE5B
:100FA00097020000938282EB73901234730020301A
:100FB000160B00004A0B0000760B00009A0B000095
:100FC000B60B000054090000740900009A090000E3
:100FD000C0090000E0090000100A0000280A000013
:100FE000320A00005E0A00007E0A0000880A000043
:100FF000A00A0000A40A0000B60A0000C80A000007
:10100000DA0A0000040B0000040B0000040B0000CF
:10101000040B0000040B0000040B0000040B000094
:10102000040B0000040B0000040B0000040B000084
:10103000040B0000040B0000040B0000040B000074
:10104000040B0000040B0000040B0000040B000064
:10105000040B0000040B0000040B0000040B000054
:10106000040B0000040B0000040B0000040B000044
:10107000040B0000040B0000EC0A0000040B00004D
:10108000040B000054090000740900009A090000D4
:10109000C0090000E0090000100A0000280A000052
:1010A000320A00005E0A00007E0A0000040B000005
:1010B000040B0000040B0000040B0000040B0000F4
:1010C000040B0000040B0000880A0000A00A0000C6
:1010D000A40A0000B60A0000C80A0000DA0A0000EC
:1010E000040B0000040B0000040B0000040B0000C4
:1010F000040B0000040B0000040B0000040B0000B4
:10110000040B0000040B0000040B0000040B0000A3
:10111000040B0000040B0000040B0000040B000093
:10112000040B0000040B0000040B0000040B000083
:10113000040B0000040B0000040B0000040B000073
:10114000040B0000040B0000880A0000A00A000045
:10115000A40A0000B60A0000C80A0000DA0A00006B
:0811600002000000FFFFFFFF89
:00000001FF
